{
  "transactions": [
    {
      "hash": "0xeea15b93c8c84b4509649eb4075745b23447f67350ac20ea78ef811e96e06527",
      "transactionType": "CALL",
      "contractName": null,
      "contractAddress": "0x779877a7b0d9e8603169ddbd7836e478b4624789",
      "function": "transferAndCall(address,uint256,bytes)",
      "arguments": [
        "0x9DdfaCa8183c41ad55329BdeeD9F6A8d53168B1B",
        "3000000000000000000",
        "0x733791714cdbe0c681e562dc79350710bb280e138d372220e8dc9b6b1c0db72a"
      ],
      "transaction": {
        "from": "0x6a4bf16d8255a6d7cfe5e9fe8c18b4c45b6bd3d6",
        "to": "0x779877a7b0d9e8603169ddbd7836e478b4624789",
        "gas": "0x1c1ff",
        "value": "0x0",
        "input": "0x4000aea00000000000000000000000009ddfaca8183c41ad55329bdeed9f6a8d53168b1b00000000000000000000000000000000000000000000000029a2241af62c000000000000000000000000000000000000000000000000000000000000000000600000000000000000000000000000000000000000000000000000000000000020733791714cdbe0c681e562dc79350710bb280e138d372220e8dc9b6b1c0db72a",
        "nonce": "0x4",
        "chainId": "0xaa36a7"
      },
      "additionalContracts": [],
      "isFixedGasLimit": false
    }
  ],
  "receipts": [
    {
      "status": "0x1",
      "cumulativeGasUsed": "0xe4632d",
      "logs": [
        {
          "address": "0x779877a7b0d9e8603169ddbd7836e478b4624789",
          "topics": [
            "0xddf252ad1be2c89b69c2b068fc378daa952ba7f163c4a11628f55a4df523b3ef",
            "0x0000000000000000000000006a4bf16d8255a6d7cfe5e9fe8c18b4c45b6bd3d6",
            "0x0000000000000000000000009ddfaca8183c41ad55329bdeed9f6a8d53168b1b"
          ],
          "data": "0x00000000000000000000000000000000000000000000000029a2241af62c0000",
          "blockHash": "0xb17e95077dd162c11aef8e21163fedbc6fada94ce8e69ee41ed8ec088dc5b481",
          "blockNumber": "0x65e59b",
          "transactionHash": "0xeea15b93c8c84b4509649eb4075745b23447f67350ac20ea78ef811e96e06527",
          "transactionIndex": "0x97",
          "logIndex": "0xf3",
          "removed": false
        },
        {
          "address": "0x779877a7b0d9e8603169ddbd7836e478b4624789",
          "topics": [
            "0xe19260aff97b920c7df27010903aeb9c8d2be5d310a2c67824cf3f15396e4c16",
            "0x0000000000000000000000006a4bf16d8255a6d7cfe5e9fe8c18b4c45b6bd3d6",
            "0x0000000000000000000000009ddfaca8183c41ad55329bdeed9f6a8d53168b1b"
          ],
          "data": "0x00000000000000000000000000000000000000000000000029a2241af62c000000000000000000000000000000000000000000000000000000000000000000400000000000000000000000000000000000000000000000000000000000000020733791714cdbe0c681e562dc79350710bb280e138d372220e8dc9b6b1c0db72a",
          "blockHash": "0xb17e95077dd162c11aef8e21163fedbc6fada94ce8e69ee41ed8ec088dc5b481",
          "blockNumber": "0x65e59b",
          "transactionHash": "0xeea15b93c8c84b4509649eb4075745b23447f67350ac20ea78ef811e96e06527",
          "transactionIndex": "0x97",
          "logIndex": "0xf4",
          "removed": false
        },
        {
          "address": "0x9ddfaca8183c41ad55329bdeed9f6a8d53168b1b",
          "topics": [
            "0x1ced9348ff549fceab2ac57cd3a9de38edaaab274b725ee82c23e8fc8c4eec7a",
            "0x733791714cdbe0c681e562dc79350710bb280e138d372220e8dc9b6b1c0db72a"
          ],
          "data": "0x000000000000000000000000000000000000000000000000000000000000000000000000000000000000000000000000000000000000000029a2241af62c0000",
          "blockHash": "0xb17e95077dd162c11aef8e21163fedbc6fada94ce8e69ee41ed8ec088dc5b481",
          "blockNumber": "0x65e59b",
          "transactionHash": "0xeea15b93c8c84b4509649eb4075745b23447f67350ac20ea78ef811e96e06527",
          "transactionIndex": "0x97",
          "logIndex": "0xf5",
          "removed": false
        }
      ],
      "logsBloom": "0x00000004000000000000000000000000000000000020000000000000020000000000000000000000004000000000000000000000000000000000000000000000000000000000000200000008000000000000000001000000000020000020000008000000000000000000000000000000000000000000000000000010000040000000000000000000000000010000800000000020000000000000000000000000000000000000000000000000810040000000000000000000004004000000000000000002000000000000000000000000000000000000000100000000000000000010000000000000800000000000000000000000000000000000000000000000",
      "type": "0x2",
      "transactionHash": "0xeea15b93c8c84b4509649eb4075745b23447f67350ac20ea78ef811e96e06527",
      "transactionIndex": "0x97",
      "blockHash": "0xb17e95077dd162c11aef8e21163fedbc6fada94ce8e69ee41ed8ec088dc5b481",
      "blockNumber": "0x65e59b",
      "gasUsed": "0x133b1",
      "effectiveGasPrice": "0xa6482bfb3",
      "from": "0x6a4bf16d8255a6d7cfe5e9fe8c18b4c45b6bd3d6",
      "to": "0x779877a7b0d9e8603169ddbd7836e478b4624789",
      "contractAddress": null
    }
  ],
  "libraries": [],
  "pending": [],
  "returns": {},
  "timestamp": 1726147024,
  "chain": 11155111,
  "commit": "e723b17"
}